:100000000C942A000C9447000C9447000C94470071
:100010000C9447000C9447000C9447000C94470044
:100020000C9447000C9447000C9445030C943D033A
:100030000C9447000C9447000C9447000C94470024
:100040000C9447000C9447000C9447000C94470014
:100050000C94470011241FBECFE5D8E0DEBFCDBF12
:1000600010E0A0E6B0E0E0E4F0E102C005900D92FF
:10007000A23EB107D9F710E0A2EEB0E001C01D9298
:10008000AC3EB107E1F70E94C3010C941E080C942A
:1000900000008091D00080538093E600282F30E04C
:1000A00080FF03C08EE18093E200B901882777FDCD
:1000B0008095982F0E94BA0620E030E040E05FE390
:1000C0000E946E070E948C066093E300089580E60C
:1000D00090E00E94B3048091E4008F5F8093E4007D
:1000E000089581E00E94C6048EE690E00E94B30469
:1000F00080E0089580E00E9442058093D0008F3F09
:1001000011F00E94E6038091D0008F3F99F308958B
:1001100081E060E00E9405058091E3006AE00E94B2
:10012000F00790E0A0E0B0E0BC01CD010E94250402
:100130008091E3006AE00E94F007692F70E080E0A0
:1001400090E00E9425048AE30E94E6038091E20089
:100150006AE00E94F00790E0A0E0B0E0BC01CD01B1
:100160000E9425048091E2006AE00E94F007692F56
:1001700070E080E090E00E94250408950F931F93A3
:100180000BE311E060E070E080E89FE30E944D0324
:100190008091E200882351F48091E300882371F07C
:1001A0000093E20081508093E30003C0815080936C
:1001B000E2000E9488001093E500E4CF1F910F91A8
:1001C00008951F9381E00E94C6048091E40081306D
:1001D000A9F48CE790E00E94B30481E060E00E9403
:1001E00005058BE890E00E94B30481E060E00E9486
:1001F00005058091E4008F5F8093E4008FEF80938A
:10020000D0001AE080E00E944205382F8093D00091
:100210008F3FE9F18091E4008330A1F0843018F43D
:10022000823039F505C08430A1F0853011F51BC04E
:100230002091E300205E319FC0011124280F2093FC
:10024000E30017C08091E3008053830F8093E300A5
:1002500010C02091E200205E319FC0011124280FC0
:100260002093E20006C08091E2008053830F8093C8
:10027000E200832F0E94E6038091E4008F5F809369
:10028000E400843021F481E063E00E940505809160
:10029000E400863008F4B6CF8CE00E94C60481E00A
:1002A0000E94C6048091E400863069F481E990E000
:1002B0000E94B30480E061E00E9405058091E400A3
:1002C0008F5F8093E4006DEC7CEC8CEC9DE30E94EE
:1002D0004D030E94BE001F91089581E08093E300CA
:1002E0008CE00E94C60481E00E94C6048EE990E082
:1002F0000E94B30481E060E00E9405050E9488002E
:100300000E94BE00089581E00E94C6048091E4002E
:10031000813049F48CEA90E00E94B3048091E400BB
:100320008F5F8093E4008FEF8093D0000E947A006B
:100330008CE00E94C6046DEC7CEC8CEC9DE30E948A
:100340004D030E94490081E00E94C6048DEB90E0BD
:100350000E94B3046091E60070E080E090E00E94AB
:10036000250486EC90E00E94B3040E94BE0008952C
:100370000E940F058EE00E94C6040E94260380E0C2
:100380000E948C0508950E94B8018091E4008823A2
:1003900011F40E9467000E947A006DEC7CEC8CECFA
:1003A0009DE30E944D038091D000823339F0833366
:1003B00041F0813341F40E946D0105C00E94830128
:1003C00002C00E94E1008091E5008823F1F20E94C2
:1003D0007100DBCF813031F1813038F0823009F4A7
:1003E0003EC0833009F072C056C0442321F0413032
:1003F00009F06CC00CC02AB381E090E002C0880F05
:10040000991F6A95E2F7809582238ABB08952AB3E3
:1004100081E090E002C0880F991F6A95E2F7282BCF
:100420002ABB0895442321F0413009F04FC00CC08D
:1004300027B381E090E002C0880F991F6A95E2F728
:100440008095822387BB089527B381E090E002C0A6
:10045000880F991F6A95E2F7282B27BB089544233C
:1004600019F0413099F50CC024B381E090E002C04E
:10047000880F991F6A95E2F78095822384BB0895BF
:1004800024B381E090E002C0880F991F6A95E2F7DB
:10049000282B24BB0895442319F04130B9F40CC033
:1004A00021B381E090E002C0880F991F6A95E2F7BE
:1004B0008095822381BB089521B381E090E002C042
:1004C000880F991F6A95E2F7282B21BB0895813088
:1004D00049F0813028F0823039F0833041F406C091
:1004E0006ABB089567BB089564BB089561BB089516
:1004F000813031F1813038F0823009F43EC08330F0
:1005000009F072C056C0442321F0413009F06CC09C
:100510000CC02BB381E090E002C0880F991F6A9550
:10052000E2F7809582238BBB08952BB381E090E0A6
:1005300002C0880F991F6A95E2F7282B2BBB0895FC
:10054000442321F0413009F04FC00CC028B381E0B2
:1005500090E002C0880F991F6A95E2F78095822388
:1005600088BB089528B381E090E002C0880F991FEE
:100570006A95E2F7282B28BB0895442319F04130EF
:1005800099F50CC025B381E090E002C0880F991F57
:100590006A95E2F78095822385BB089525B381E0B3
:1005A00090E002C0880F991F6A95E2F7282B25BBBF
:1005B0000895442319F04130B9F40CC022B381E00E
:1005C00090E002C0880F991F6A95E2F78095822318
:1005D00082BB089522B381E090E002C0880F991F8A
:1005E0006A95E2F7282B22BB0895813049F08130CB
:1005F00028F0823039F0833041F406C06BBB089597
:1006000068BB089565BB089562BB0895813051F0C1
:10061000813030F0823041F0833079F080E008950D
:1006200089B303C086B301C083B390E002C095953F
:1006300087956A95E2F78170089580B390E002C0D3
:10064000959587956A95E2F78170089583B78F7BBA
:1006500083BF83B7877F83BF83B78F7E83BF83B713
:100660008F7D83BF089583B78E7F83BF83B78260FA
:1006700083BF83B78B7F83BF0895E091E800F0913B
:10068000E900309709F009950895E091EA00F091AA
:10069000EB00309709F0099508956F927F928F9241
:1006A0009F92AF92BF92CF92DF92EF92FF920F9301
:1006B0001F937B018C012DEB37E346E859E30E9441
:1006C0006A0788230CF45BC0C801B7012DEB37E340
:1006D00046E859E30E9424060E948C063B014C0127
:1006E0000E94B8062DEB37E346E859E30E946E07F7
:1006F0009B01AC01C801B7010E94BB055B016C0105
:1007000012BEEE24FF2487010EC00E94330308B6F8
:1007100000FEFDCF13BE88B7816088BF0894E11C3E
:10072000F11C011D111DE614F7040805190568F3F5
:10073000C601B50120E030E040E050E00E94200614
:100740008823B9F1C601B50120E030E040E251E470
:100750000E94240620E030E040E853EC0E946E073F
:1007600020E030E040E853E40E94BC050E948C0683
:1007700062BF0E94330308B600FEFDCF16C06DEBCA
:1007800077E386E899E3A80197010E94BB052DEB6A
:1007900037E346E855E30E9424060E948C0662BFB8
:1007A0000E94330308B600FEFDCF13BE88B78160F8
:1007B00088BF1F910F91FF90EF90DF90CF90BF9077
:1007C000AF909F908F907F906F900895FF920F93BE
:1007D0001F93F82E82E060E041E00E94780282E000
:1007E00061E040E00E94780283E06F2D0E94F502F4
:1007F00082E062E041E00E94780200EA1FE0C80166
:100800000197F1F782E062E040E00E947802C801BF
:100810000197F1F7F29480EFF82283E06F2D0E94A8
:10082000F50282E062E041E00E947802C80101978F
:10083000F1F782E062E040E00E947802C80101978F
:10084000F1F71F910F91FF9008954F925F926F9271
:100850007F928F929F92AF92BF92CF92DF92EF9250
:10086000FF920F931F93CF93DF937B018C01611550
:1008700071058105910521F480E30E94E60362C0C1
:1008800097FF0BC08DE20E94E60310950095F0944F
:10089000E094E11CF11C011D111DC801B701DD240C
:1008A0000BC0D3942AE030E040E050E00E94FC0707
:1008B000C901DA01BC01CD01611571058105910500
:1008C00081F78D2C8A9466247724482C552447FC84
:1008D00050942BC0C601B5012AE030E040E050E062
:1008E0000E94D1075B016C019394892D90E0C81799
:1008F000D90784F7B701C801A60195010E94FC073A
:10090000822F805D0E94E6030894611C711C882080
:10091000C9F0B701C801A60195010E94FC07AC010E
:10092000CB01DA017C018D018A9487FC0BC09924EC
:10093000939491E0A92EB12CC12CD12CE201C619BF
:10094000D709D3CFDF91CF911F910F91FF90EF90F7
:10095000DF90CF90BF90AF909F908F907F906F90DF
:100960005F904F9008951F93CF93DF93EC0110E0B9
:1009700003C00E94E6031F5FFE01E10FF11D8081AD
:100980008823B9F7DF91CF911F910895FF920F93BC
:100990001F93F82E82E060E040E00E94780282E03F
:1009A00061E040E00E94780283E06F2D0E94F50232
:1009B00082E062E041E00E94780200EA1FE0C801A4
:1009C0000197F1F782E062E040E00E947802C801FE
:1009D0000197F1F7F29420EFF22283E06F2D0E944D
:1009E000F50282E062E041E00E947802C8010197CE
:1009F000F1F782E062E040E00E947802C8010197CE
:100A0000F1F71F910F91FF900895882319F4862F15
:100A1000805802C0862F80540E94C60408951F93F8
:100A200083E06FEF0E94670282E060E041E00E9495
:100A3000EA0182E061E041E00E94EA0182E062E0D6
:100A400041E00E94EA0180E09AEF0197F1F782E02D
:100A50000E94C6048CE20E94C60410E7812F8A958A
:100A6000F1F78FE00E94C6041A95F1F781E00E9429
:100A7000C60480EA9FE00197F1F786E00E94C60471
:100A80001F910895AF92BF92CF92DF92EF92FF92A3
:100A90000F931F93CF93DF93E82EDD24DA9400E0C9
:100AA00010E028ECA22EB12CC02E8E2D602F40E03D
:100AB0000E947802E801CC0FDD1FCC0FDD1FCF5262
:100AC000DF4F84E0F82E8E2D6F2D0E9406038823C1
:100AD00041F4D88080ED97E0F5013197F1F7019767
:100AE000D9F7F394219688E0F81669F78E2D6C2DCE
:100AF00041E00E9478020F5F1F4F04301105A1F6FC
:100B00008D2DDF91CF911F910F91FF90EF90DF908E
:100B1000CF90BF90AF9008951F93182F60E041E0F1
:100B20000E94EA01812F61E041E00E94EA01812FE9
:100B300062E041E00E94EA01812F63E041E00E940F
:100B4000EA01812F64E040E00E94EA01812F65E024
:100B500040E00E94EA01812F66E040E00E94EA0145
:100B6000812F67E040E00E94EA01812F6FEF0E9431
:100B7000F5021F9108955058BB27AA270ED070C1C7
:100B800061D130F066D120F031F49F3F11F41EF4B2
:100B900056C10EF4E095E7FB4CC1E92F72D180F30A
:100BA000BA17620773078407950718F071F49EF56A
:100BB0008AC10EF4E0950B2EBA2FA02D0B01B901BE
:100BC00090010C01CA01A0011124FF27591B99F0C3
:100BD000593F50F4503E68F11A16F040A22F232FCF
:100BE000342F4427585FF3CF469537952795A7951F
:100BF000F0405395C9F77EF41F16BA0B620B730BC6
:100C0000840BBAF09150A1F0FF0FBB1F661F771F36
:100C1000881FC2F70EC0BA0F621F731F841F48F4EB
:100C2000879577956795B795F7959E3F08F0B3CF71
:100C30009395880F08F09927EE0F9795879508955B
:100C4000D4D008F481E008950CD00AC102D140F05C
:100C5000F9D030F021F45F3F19F0EBC0511134C1ED
:100C6000EEC00FD198F39923C9F35523B1F3951B27
:100C7000550BBB27AA2762177307840738F09F5FBD
:100C80005F4F220F331F441FAA1FA9F333D00E2E2C
:100C90003AF0E0E830D091505040E695001CCAF799
:100CA00029D0FE2F27D0660F771F881FBB1F26175E
:100CB00037074807AB07B0E809F0BB0B802DBF0131
:100CC000FF2793585F4F2AF09E3F510568F0B1C04F
:100CD000FBC05F3FECF3983EDCF386957795679514
:100CE000B795F7959F5FC9F7880F911D96958795E2
:100CF00097F90895E1E0660F771F881FBB1F621701
:100D000073078407BA0720F0621B730B840BBA0BBE
:100D1000EE1F88F7E0950895BCD088F09F5790F0BB
:100D2000B92F9927B751A0F0D1F0660F771F881F10
:100D3000991F1AF0BA95C9F712C0B13081F0C3D02B
:100D4000B1E00895C0C0672F782F8827B85F39F0C9
:100D5000B93FCCF3869577956795B395D9F73EF46F
:100D600090958095709561957F4F8F4F9F4F089517
:100D7000E89409C097FB3EF4909580957095619535
:100D80007F4F8F4F9F4F9923A9F0F92F96E9BB27EB
:100D90009395F695879577956795B795F111F8CF67
:100DA000FAF4BB0F11F460FF1BC06F5F7F4F8F4FD2
:100DB0009F4F16C0882311F096E911C0772321F0C8
:100DC0009EE8872F762F05C0662371F096E8862F60
:100DD00070E060E02AF09A95660F771F881FDAF7B7
:100DE000880F9695879597F90895990F0008550FE4
:100DF000AA0BE0E8FEEF16161706E807F907C0F0A1
:100E000012161306E407F50798F0621B730B840BA8
:100E1000950B39F40A2661F0232B242B252B21F482
:100E200008950A2609F4A140A6958FEF811D811D22
:100E3000089597F99F6780E870E060E008959FEF5C
:100E400080EC089500240A94161617061806090661
:100E5000089500240A941216130614060506089530
:100E6000092E0394000C11F4882352F0BB0F40F4B8
:100E7000BF2B11F460FF04C06F5F7F4F8F4F9F4FF8
:100E8000089557FD9058440F551F59F05F3F71F07A
:100E90004795880F97FB991F61F09F3F79F08795E1
:100EA0000895121613061406551FF2CF4695F1DF6A
:100EB00008C0161617061806991FF1CF86957105FA
:100EC000610508940895E894BB2766277727CB012E
:100ED00097F908958ADF08F48FEF08950BD0C0CFFB
:100EE000B1DF28F0B6DF18F0952309F0A2CFA7CF25
:100EF0001124EACFC6DFA0F3959FD1F3950F50E000
:100F0000551F629FF001729FBB27F00DB11D639FBB
:100F1000AA27F00DB11DAA1F649F6627B00DA11D61
:100F2000661F829F2227B00DA11D621F739FB00D07
:100F3000A11D621F839FA00D611D221F749F332777
:100F4000A00D611D231F849F600D211D822F762F10
:100F50006A2F11249F5750408AF0E1F088234AF00D
:100F6000EE0FFF1FBB1F661F771F881F9150504059
:100F7000A9F79E3F510570F05CCFA6CF5F3FECF321
:100F8000983EDCF3869577956795B795F795E79545
:100F90009F5FC1F7FE2B880F911D9695879597F956
:100FA0000895629FD001739FF001829FE00DF11DB3
:100FB000649FE00DF11D929FF00D839FF00D749FD3
:100FC000F00D659FF00D9927729FB00DE11DF91F7F
:100FD000639FB00DE11DF91FBD01CF0111240895DC
:100FE000991B79E004C0991F961708F0961B881F7B
:100FF0007A95C9F780950895A1E21A2EAA1BBB1B0A
:10100000FD010DC0AA1FBB1FEE1FFF1FA217B307D4
:10101000E407F50720F0A21BB30BE40BF50B661FEA
:10102000771F881F991F1A9469F7609570958095AE
:1010300090959B01AC01BD01CF010895F894FFCFBD
:1010400053656C656374206D6F64653A20002020E1
:10105000202020202020446F6E652100436F6F6B9D
:10106000696E672074696D653A200030303A30301F
:1010700000437573746F6D206D6F64653A00506F37
:1010800070636F726E206D6F64653A0043686963C8
:101090006B656E207765696768743A2000436F6FEF
:1010A0006B696E672000206B696C6F2873293A00AA
:1010B000FF3738392F3435362A3132332D63303DFE
:0210C0002B0003
:00000001FF
